:020000040800F2
:1000000000000220653D0008B13D0008B13D000838
:10001000B13D0008B13D0008B13D000800000000FE
:10002000000000000000000000000000B13D0008DA
:10003000B13D000800000000B13D0008B13D0008DE
:10004000B13D0008B13D0008B13D0008B13D0008D8
:10005000B13D0008B13D0008B13D0008B13D0008C8
:10006000B13D0008B13D0008B13D0008B13D0008B8
:10007000B13D0008B13D0008B13D0008B13D0008A8
:10008000B13D0008B13D0008B13D0008000000008E
:10009000000000000000000000000000B13D00086A
:1000A000B13D0008B13D0008B13D0008B13D000878
:1000B000B13D0008B13D0008B13D0008B13D000868
:1000C000B13D0008B13D0008B13D0008B13D000858
:1000D000B13D0008B13D0008B13D0008000000003E
:1000E000B13D0008B13D0008B13D0008000000002E
:1000F000000000000000000000000000B13D00080A
:1001000000000000B13D0008B13D0008B13D00080D
:1001100000000000000000000000000000000000DF
:10012000B13D0008B13D0008B13D0008B13D0008F7
:10013000B13D0008000000000000000000000000C9
:10014000000000000000000000000000B13D0008B9
:10015000B13D0008B13D0008B13D0008B13D0008C7
:10016000B13D0008B13D00080000000000000000A3
:10017000000000000000000000000000000000007F
:1001800000000000B13D0008000000000000000079
:10019000B13D0008B13D000810B5054C237833B9D6
:1001A000044B13B10448AFF300800123237010BD4A
:1001B000680400200000000004C70208084B10B5C6
:1001C0001BB108490848AFF300800848036803B929
:1001D00010BD074B002BFBD0BDE81040184700BFF7
:1001E000000000006C04002004C702086404002022
:1001F00000000000154B002B08BF134B9D46A3F5D4
:10020000803A00218B460F461348144A121A1EF0FA
:10021000C4FF0F4B002B00D098470E4B002B00D093
:1002200098470020002104000D000D48002802D04E
:100230000C48AFF300801EF081FD2000290005F07E
:1002400039FB1EF0E5F900BF0000080000000220A5
:10025000000000000000000068040020EC1D0020E9
:10026000000000000000000008B504F09BF8002129
:1002700008BD0000044B01221A60044B5A6A044B6B
:100280001A6000225A60704784040020000C00406D
:1002900088040020034B1A68034B5A62034B002268
:1002A0001A60704788040020000C0040840400207D
:1002B0000A6802604A6842608A688260CA68C260EE
:1002C0000A690261704702680B689A4211D142685C
:1002D0004B689A420DD182688B689A4209D1C268F4
:1002E000CB689A4205D100690B69C31A584258413C
:1002F00070470020704708B5FFF7E5FF80F0010068
:10030000C0B208BD0A6802608A6882604A684260BA
:10031000CA68C2600A690261704702680B689A4243
:1003200016DB17D142684B689A4211DB12D1826802
:100330008B689A420CDB0DD1C268CB689A4207DB0E
:1003400008D100690B699842ACBF002001207047BA
:10035000012070470020704770B50C689C420BDB91
:1003600094FBF3F415682C4414600C6894FBF3F2CE
:1003700003FB12430B6070BD002CFCDA94FBF3F618
:1003800086EAE675A5EBE67503FB1644002C0CBF68
:100390002C466C1C15682D1B15600A6804FB032392
:1003A000E8E770B5044600F10C052A4604F108069A
:1003B0004FF47A7300F11001FFF7CEFF3246294661
:1003C0004FF47A73251D2046FFF7C6FF2A463146B3
:1003D0003C232046FFF7C0FF3C2322462946204607
:1003E000FFF7BAFF204670BD10B547F6FF730360F4
:1003F0003B234360836040F2E7330446C3600361FC
:10040000FFF7CFFF204610BD2DE9F0438BB00E461D
:100410004FF03B0840F2E737044647F6FF7905A85E
:100420001546CDF81490CDF81880CDF81C800897AB
:100430000997FFF7B6FF05A93046FFF744FF0028EC
:100440002ED16846CDF80090CDF80480CDF8088014
:1004500003970497FFF7A5FF69462846FFF733FF88
:10046000F0B92B6837686868A968EA682D691F4485
:10047000736805971844B36806901944F3680791A8
:100480001A44336908922B4405A80993FFF789FFA2
:1004900005A92046FFF70CFF20460BB0BDE8F0830E
:1004A00047F6FF7323603B236360A36040F2E733AA
:1004B000E36023612046FFF774FFEDE72DE9F04389
:1004C0008BB00E464FF03B0840F2E737044647F644
:1004D000FF7905A81546CDF81490CDF81880CDF811
:1004E0001C8008970997FFF75CFF05A93046FFF7C6
:1004F000EAFE00282ED16846CDF80090CDF80480A1
:10050000CDF8088003970497FFF74BFF694628460C
:10051000FFF7D9FEF0B92B6837686868A968EA6800
:100520002D69FF1A73680597181AB3680690591A4F
:10053000F36807919A1A336908925B1B05A809931F
:10054000FFF72FFF05A92046FFF7B2FE20460BB0AC
:10055000BDE8F08347F6FF7323603B236360A3602D
:1005600040F2E733E36023612046FFF71AFFEDE72F
:10057000D0B516461F4604461C4A0023304639466D
:1005800027F0BEF860602046FFF70BFF6268174B4C
:100590005343F61A67EBE377154A00233046394692
:1005A00027F0AEF8A0602046FFF7FBFEA268104BD4
:1005B0005343F61A67EBE3774FF47A720023304621
:1005C000394627F09DF8E0602046FFF7EAFEE26832
:1005D0004FF47A735343F61A26612046FFF7E1FE83
:1005E0002046FFF7DEFE2046D0BD00BF0087930304
:1005F00040420F0030B59FB047F6FF7305933B2391
:100600000D4606930793044640F2E73305A8089386
:100610000993FFF7C6FE05A92846FFF754FE20B34D
:10062000184905A820F00BFA04F10803236005A877
:1006300020F042FF05AB0F2803EB0005049007D91B
:10064000002204A9204611F0A5FC049B2060A360B1
:100650002A4605A9206811F02CFD049B22686360DE
:1006600000212046D1541FB030BD2B690293EB68A6
:100670000193AB68009395E80C00034905A820F0AE
:100680003FF9D1E7507A0208547A0208D0B50446FF
:10069000FFF7EAFD084BD3E900670023821B2360C4
:1006A0006360A360E3602361204661EB0703FFF70B
:1006B0005FFF2046D0BD00BFA804002008B5FFF7AB
:1006C000D3FD024BC3E9000108BD00BFA804002010
:1006D00004480023036043608360C3600361FFF745
:1006E00060BE00BF9004002070477047704770479D
:1006F00070477047704770477047704700207047D9
:10070000002070470020704770477047704770475F
:10071000704703685B68184703685B68184710B543
:10072000044605F060F9204610BD08B508B1FFF792
:10073000F6FF08BD10B5044605F055F9204610BD7A
:1007400008B508B1FFF7F6FF08BD10B5044605F07F
:100750004AF9204610BD08B508B1FFF7F6FF08BDFD
:1007600010B5044605F03FF9204610BD10B504460B
:1007700005F039F9204610BD10B5044605F033F9EF
:10078000204610BD10B5044605F02DF9204610BDD9
:1007900010B5044605F027F9204610BD10B50446F3
:1007A00005F021F9204610BD10B5044605F01BF9EF
:1007B000204610BD05F017B905F015B905F013B9BD
:1007C00005F011B905F00FB905F00DB905F00BB939
:1007D00090F83431013B0C2B26D8DFE803F00907F1
:1007E00025250B25151B1D15150D0F00042314E0E1
:1007F000032312E0072302E00A2300E00B2380F822
:10080000343100F59E710CE0082380F8343100F596
:10081000A87106E0062300E0002380F8343100F1DF
:10082000B0013030FFF76EBD704790F8C830032B31
:1008300006D0042B02D0012B0AD101E0002300E0F6
:10084000022380F8C83000F5B4713030FFF75ABD8C
:100850007047000010B504460846034905F09CFBAC
:1008600008B104F10C0010BDF47E020810B5044676
:100870000846034905F090FB08B104F10C0010BDD7
:10088000F47E020810B504460846034905F084FBCF
:1008900008B104F10C0010BDF47E020810B5044646
:1008A0000846034905F078FB08B104F10C0010BDBF
:1008B000F47E020810B504460846034905F06CFBB7
:1008C00008B104F10C0010BDF47E020810B5044616
:1008D0000846034905F060FB08B104F10C0010BDA7
:1008E000F47E020810B504460846034905F054FB9F
:1008F00008B104F10C0010BDF47E0208014803F0B9
:1009000063B900BF99840208014803F05DB900BFD4
:100910009F84020810B530310446FFF7C9FC204619
:1009200010BD10B530310446FFF7C2FC204610BDA3
:10093000F8B5454C23780D4623B1444803F0FEF941
:10094000002323702B68012B01D1414902E0022BC7
:1009500004D140493D4803F0CAF966E0032B01D1B8
:100960003D49F7E7042B4ED13C4C204626F02CFBAA
:100970002FA3D3E9002306460F4626F0F5FD98B1D4
:10098000324803F0E1F978B1304803F0E8F958B1A2
:100990002E4803F0E1F938B12C4803F0DAF918B128
:1009A0002A4803F0D4F988BB204626F00DFB22A389
:1009B000D3E9002306460F4626F0E0FD002834D098
:1009C000224803F0C1F980B3204803F0C8F960B3AE
:1009D0001E4803F0C1F940B31C4803F0BAF920B334
:1009E0001A4803F0B4F900B32146184803F07FF920
:1009F00013A3D3E900233046394626F085F926F0C3
:100A00002FFE0446D0E783B90021A3E721460F4813
:100A100003F06DF90AA3D3E900233046394626F0E6
:100A200075F926F01DFE04469FE70120F8BD00BFC2
:100A3000333333333333D33F7B14AE47E17A943FC0
:100A400048AFBC9AF2D77A3E9D010020B004002046
:100A5000CDCCCC3EAE47E13D0AD7A3BD0AD7233C5F
:100A600010B521480C4603F06FF948B91E4803F051
:100A700076F928B91C4803F06FF908B90F2330E064
:100A8000194803F061F948B9174803F068F918B933
:100A9000154803F061F908B1012322E0124803F080
:100AA0005BF918B1104803F052F908B9032318E0B4
:100AB0000D4803F054F918B10B4803F04AF908B98E
:100AC00004230EE0084803F03FF948B1064803F05C
:100AD00046F928B1044803F03FF908B1022300E0C9
:100AE00000232360012010BDB004002038B5104C55
:100AF00023780D4623B10F4803F01BF90023237020
:100B00002B68012B01D10C490DE0022B01D10B49BF
:100B100009E0032B01D10A4905E0042B01D1094961
:100B200001E01BB90021034803F0C3F8012038BDE0
:100B30009C010020B0040020EC51B83E0AD7A33D30
:100B40000AD7A3BD9A99193E00F1080373B504466C
:100B500003600D4681B1084620F0AEFC0F2805EB7E
:100B6000000601900BD9002201A9204611F012FACB
:100B7000019B2060A36002E0074806F0F3F93246CB
:100B80002946206811F090FA019B226863600021D9
:100B90002046D15402B070BDA584020808B548B102
:100BA000B0F1805F01D306F0D7F90001BDE808403D
:100BB00005F0DCB908BD08B104F015BF704708B5F1
:100BC00048B1B0F1005F01D306F0C6F9C000BDE83E
:100BD000084005F0CBB908BDC3680C305B68184706
:100BE000C3680C305B681847C3680C305B681847F3
:100BF000C3680C305B681847094A936852681B68E1
:100C0000134001D000207047064A107818B901201F
:100C100010700A2301E013700B230B60704700BFB4
:100C20006C0500207C050020036810B504469B6815
:100C30009847A368013BA3602BB923682046DB6873
:100C4000BDE81040184710BD70B500F11003144600
:100C50000025A3F11006B14219D0ACB153F8106CC5
:100C60002660656053F80C6C43F80C5C666053F8C2
:100C7000086C43F8105CE560A66053F8046C43F818
:100C8000045CE66043F8085C10341033E1E7081AAE
:100C9000104470BD10B5044B044640F8183B11F0E9
:100CA00095F9204610BD00BFFC82020810B504462D
:100CB000FFF7F0FF204604F096FE204610BD00002E
:100CC00010B5044B044640F8183B11F07FF920465C
:100CD00010BD00BFFC82020810B50446FFF7F0FF0C
:100CE000204604F080FE204610BD000010B5044BE5
:100CF000044640F8183B11F069F9204610BD00BFCA
:100D0000FC82020810B50446FFF7F0FF204604F00D
:100D10006AFE204610BD000010B5044B044640F8A2
:100D2000183B11F053F9204610BD00BFFC820208A9
:100D300010B50446FFF7F0FF204604F054FE2046AD
:100D400010BD000038B5044600250649FFF7B0FA8B
:100D50006561A561044904F11C00FFF7F5FE6563B8
:100D6000204638BD90040020EC84020870B504468B
:100D700015460E46FFF78AFC00236361A3613146E6
:100D800004F11C0011F00EFD2B686363204670BD5A
:100D900010B592B0044601466846FFF72BFC214A85
:100DA0000021684611F0E0FB014606A811F001FAA7
:100DB0001D4906A811F024FC01460CA811F0F9F910
:100DC0000C9802F001FF0CA811F000F906A811F030
:100DD000FDF8684611F0FAF8216A0EAB0C930CA8E6
:100DE000002307310D938DF8383011F022FA0722D5
:100DF0000E490CA811F0F4FB04F11C010CA811F031
:100E0000E5FB0C9802F0E0FE0CA811F0DFF8626B35
:100E100007490CA81FF074FD0CA802F0D5FE12B013
:100E200010BD00BFCF840208EB840208D7840208FB
:100E3000DF84020810B50446006828B14368013B0E
:100E400043600BB9FFF7F0FE204610BD10B5044615
:100E50000C30FFF7EFFF201DFFF7ECFF204610BD21
:100E600010B504460C30FFF7E5FF201DFFF7E2FF49
:100E7000204610BD0B68036013B15A6801325A60F6
:100E8000704710B551F8043B044640F8043BFFF7A7
:100E9000F1FF204610BD38B504460D46FFF708FAAD
:100EA00005F1140104F11400FFF7EBFF05F11C013B
:100EB00004F11C0011F076FC6B6B6363204638BDB7
:100EC00070B50E4614460546B54207D01CB12946FA
:100ED0002046FFF7E0FF38343835F5E7204670BD8F
:100EE00070B505460E461446AE4207D01CB12946E1
:100EF0002046FFF7D0FF38353834F5E7204670BD7F
:100F000070B590E860000446AE4204D02846FFF772
:100F1000A7FF1035F8E72068FFF74DFE204670BDAB
:100F200038B5C46884B104F1100504F11C00FFF762
:100F3000E7FF2846FFF7E4FF6068FFF73CFE204626
:100F4000BDE8384004F04FBD38BD10B504461C3034
:100F500011F03CF804F11800FFF76CFF204610BDBB
:100F600010B551F8043B044640F8043BFFF782FFFC
:100F7000204610BD38B551F8043B0446154640F8EC
:100F8000043BFFF777FF294604F10800FFF7E8FF6D
:100F9000204638BD10B5044B044640F8043BFFF72B
:100FA00023FA204610BD00BF6C82020838B5044603
:100FB00008680D4668B10023084A094904F0ACFCF2
:100FC00038B12346291D43F8040B1846FFF752FF9A
:100FD00002E0002323606360204638BD347C0208B1
:100FE000087B02082DE9F0430C468BB011460646FB
:100FF00004F1140520461746FFF784F904F158015F
:101000002846FFF77FF9616B69B10B6868469B68FA
:101010009847214605A86A46FFF7F6F905A928462C
:10102000FFF770F91AE0D4F82C80A46AA04515D017
:10103000D4F80090394605A8FFF73AF949466846C2
:1010400005AAFFF7CFFF29466846FFF766F918B1F2
:1010500069462846FFF756F90834E7E7294630463F
:10106000FFF726F930460BB0BDE8F0832DE9F041DB
:101070004B680E689E1B0023044603604360836038
:10108000F0100F46FFF79BFD064420606060A660ED
:1010900097E840010546B04507D01DB131462846C6
:1010A000FFF7EFFE08350836F5E765602046BDE836
:1010B000F081000038B5044608680D4668B1002389
:1010C000084A094904F028FC38B12346291D43F891
:1010D000040B1846FFF7CEFE02E000232360636096
:1010E000204638BD447B0208087B020838B5054617
:1010F0000C68006884420BD014B1636801336360EC
:1011000028B14368013B43600BB9FFF78DFD2C60AC
:10111000284638BD2DE9F04F97B00025D0F814A02F
:101120000469029580460E4603950495059554453D
:1011300000F0898023680B9323B1211D0CA8FFF7D1
:1011400099FE00E00C930B9B049904930DF1580950
:10115000059B109149F8143D0C9A059248460C9550
:101160000B95FFF767FE0CA8FFF764FED8F8107028
:1011700006A8E71BFFF78AFA3F111423D8F80410DA
:101180005F4301EB070B04990BA83031FFF790F890
:10119000594610A80BAAFFF737F910A906A8FFF7C0
:1011A000BCF800284DD10498036801A9DB68984772
:1011B0008346002845D0A3680B932BB104F10C01A2
:1011C0000CA8FFF757FE00E00C9300230C9A0B9934
:1011D0000C930B93029B10934846039B029103923E
:1011E0001193FFF727FE0CA8FFF724FED8F8043070
:1011F00010A81F44FFF74AFA10A93846FFF782F8F3
:1012000010A8FFF743FA10A93046FFF77BF8029BBE
:10121000736103A906F11800FFF768FF049910A88D
:10122000183111F0BFFA10A906F11C0010F046FFAA
:1012300010A810F0CBFE019B73633046FFF7A8FDAA
:1012400003E0103473E74FF0000B05A8FFF7F2FD41
:1012500003A8FFF7EFFD584617B0BDE8F08F38B58B
:1012600004460D46FFF70DFE05F1080104F10800E4
:10127000FFF707FE204638BD2DE9F04104460E4633
:10128000FFF7F4FE06F10C0104F10C00FFF7EEFE8F
:10129000F369B769DF1B00233811A361E36123629F
:1012A000FFF77CFC0744A061E0612762D6F81C8050
:1012B000B7690546B84507D01DB139462846FFF73E
:1012C000CEFF10351037F5E7E56106F1240104F192
:1012D0002400FFF7CBFE2046BDE8F08138B509C8F1
:1012E0001B1A1B116FF07044E51A8D4202D2104692
:1012F00005F03BFE8B422CBFD8185818834203D808
:10130000A04228BF204638BD204638BD70B50646ED
:101310000C466CB1E1683046FFF7F8FFA56804F1B0
:101320001800FFF787FD204604F05DFB2C46F0E730
:1013300070BD08B542684B689A4208D14AB1096845
:1013400000681DF0F5FEB0FA80F0400908BD0020ED
:1013500008BD012008BD000010B549688EB00446E4
:1013600038396846FFF797FD04F1500107A8FFF7E9
:10137000E0FF90B194F8C8200D9B3AB90A2B05D133
:10138000012384F8C83004F5AA711AE00B2B1CD194
:10139000042384F8C8300F4913E004F1680107A85A
:1013A000FFF7C7FF88B194F8C830022B0DD10D9B11
:1013B000C4F83C31002BEBD0032384F8C83004F58B
:1013C000A07104F13000FEF79DFF6846FFF7BDFDF8
:1013D0000EB010BD9004002010B549688EB00446D0
:1013E00038396846FFF757FD04F1500107A8FFF7A9
:1013F000A0FF002854D00D9BC4F838310B2B01D12D
:1014000009233DE0112B0AD194F83421082A47D84A
:1014100040F24913D340DA0742D5022338E0052BC6
:101420000AD194F83421082A3AD840F25113D34013
:10143000DB0735D501232BE0072B0BD194F8343192
:10144000DA1E012A01D805231AE0062B00D03BBB87
:1014500007231DE0082B0BD194F83431DA1E012A42
:1014600001D80C230CE0062B00D0CBB90A230FE0E7
:10147000062B15D194F83431DA1E012A04D80D2335
:1014800084F83431094907E0062B00D043B90B2317
:1014900084F8343104F59E7104F13000FEF732FF18
:1014A0006846FFF752FD0EB010BD00BF900400204B
:1014B00038B504460D46AC4204D0201DFFF7BAFCF7
:1014C0000834F8E738BD10B5044603C8FFF7F0FF4D
:1014D0002068FFF770FB204610BDF8B590E80C00BF
:1014E0009B1ADB1014BF1A4601229A1804460E46B6
:1014F0006FF0604504D2AA4228BF2A46174600E092
:101500002F463846FFF75BFB054694E80900181A9A
:10151000281802D03146FFF7B4FC94E803002B46AC
:1015200000F108064FF0000EA6F1080291420ED01D
:1015300053B156F8082C83E8044056F8042C46F8BA
:1015400004EC5A6046F808EC08330836ECE70E1A4B
:1015500008362E44FFF7ACFF2068FFF72CFB84E829
:10156000600005EBC705A560F8BD4368826893423B
:1015700010B5044607D013B11846FFF782FC636824
:101580000833636010BDFFF7A8FF10BD38B50446EF
:101590000D46AC4204D02046FFF758FC1034F8E763
:1015A00038BD10B504462430FFF78DFFE169A0690E
:1015B000FFF7ECFFA069FFF7FEFA04F10C00FFF75C
:1015C00082FF2046FFF77FFF204610BD10B5C4689C
:1015D00054B12046054B40F8183BFFF7E2FF204688
:1015E000BDE8104004F0FFB910BD00BFE48202085E
:1015F000F8B582684368934204460E4607D013B19B
:101600001846FFF72CFE636810336360F8BD124A7A
:101610000121FFF763FE0746FFF7C0FA054694E88D
:101620000900181A281802D03146FFF718FE2A467A
:1016300094E80300FFF708FB064694E80300FFF771
:10164000A5FF2068FFF7B7FA1036256005EB0715F0
:101650006660A560F8BD00BF008502084368826827
:1016600093422DE9F04105460C4613D073B10A6848
:101670001A6000225A60496862605960A16822605D
:10168000DA609960E168E260D960A26010336B6053
:10169000BDE8F081194A0121FFF720FE8046FFF7DF
:1016A0007DFA064695E803000B1AF21812D0276857
:1016B000F75000235360D4F804E0A7686360C2F8D1
:1016C00004E02360D360D4F80CE09760E360C2F8D4
:1016D0000CE0A3603246FFF7B7FA044695E8030032
:1016E000FFF754FF2868FFF766FA10342E6006EB08
:1016F00008166C60AE60BDE8F08100BF008502088E
:1017000070B50E461446051D2B1F9E4210D064B1C5
:10171000204655F8043C40F8043B2946FFF7AAFB55
:10172000291D04F10800FFF7ACFB10341035EBE77E
:10173000204670BD70B54B680D685D1B00230446E4
:1017400003604360836028110E46FFF727FA0544C3
:1017500020606060A560024696E80300FFF7D0FFB6
:101760006060204670BD8B6870B5164604460D1D3E
:1017700001225BB130681A69904234BF9868D8681A
:101780001D4634BF012200220346F2E732B1CA6887
:1017900095420AD0284604F0D9FC00E02846336878
:1017A00002699A424FF0000302D284E8280001E067
:1017B00084E80900204670BD38B51C460546031D67
:1017C00041B99A4206D01069216981422CBF00209C
:1017D000012000E00120214604F0BAFC6B690133CE
:1017E0006B61204638BD2DE9F74305461C2017469E
:1017F0001E46894604F0BAFB31463B68036100F19E
:10180000180851F8043B436104464046FFF732FB99
:1018100004F1100249466846FFF7A5FF019E009FAC
:101820004EB12346324639464846FFF7C5FF0123ED
:1018300028602B7107E04046FFF7FCFA204604F0D1
:10184000D2F82F602E71284603B0BDE8F0832DE951
:10185000F7431C4605461C20894604F087FB236895
:1018600006461F6807612B1D00F1100899454FF0CF
:1018700000007061B0614C4608D16B69002B4BD001
:101880002A691369BB4247D2044636E0D9F81030C2
:10189000BB4217D9EB684B45484611D004F056FCC3
:1018A0000369BB4205D2C368002B0CBF0024484625
:1018B00006E0684642462946FFF755FF009C01981E
:1018C000024619E01FD22B694B4513D0484604F05D
:1018D0002AFC0369BB4206D9D9F80C30002B0CBF97
:1018E0000020044606E0684642462946FFF73BFFD3
:1018F0009DE81100224604462AB133462146284677
:10190000FFF75AFF10E006F11800FFF793FA304690
:1019100004F069F8204607E0424629466846FFF78A
:1019200022FF009C019AE7E703B0BDE8F0830000C6
:101930007FB5041D83680A4621464BB115681E69B0
:10194000AE4236BFDD689D680B4619462B46F4E76C
:101950008C4203D014680B699C4208D204AB43F854
:10196000042D02AA0092044AFFF771FF014601F11B
:10197000140004B070BD00BF9884020838B5046834
:1019800043681B1BDC100A4B63430A4CE51A8D426B
:1019900002D2104605F0E9FA8B422CBFD81858182D
:1019A000834203D8A04228BF204638BD204638BD18
:1019B000B76DDBB62449920438B504460D46AC42F7
:1019C00004D02046FFF7C1FA3834F8E738BD10B527
:1019D000044603C8FFF7F0FF2068FFF7ECF8204645
:1019E00010BD0000114B70B50446C36000F5847053
:1019F000FFF7ABFA04F1D000FFF7A7FA04F15C0699
:101A000004F1BC05AE4204D0183D284610F0DEFAC1
:101A1000F8E704F15000FFF7DAFF054BE36004F14B
:101A20002400BDE8704010F0D1BA00BFC0820208A7
:101A300078820208114B70B50446C36000F58870C7
:101A4000FFF783FA04F1D800FFF77FFA04F15C0690
:101A500004F1D405AE4204D0183D284610F0B6FA81
:101A6000F8E704F15000FFF7B2FF054BE36004F123
:101A70002400BDE8704010F0A9BA00BF9C820208A3
:101A800078820208006810B103681B691847704724
:101A90002DE9F0418EB000240746502001940294B5
:101AA00004F064FA06461F4B1F494FF00108054633
:101AB000C0F80480C0F8088046F80C3B08A8FFF77F
:101AC00043F803A803940494CDF814800694079473
:101AD000FEF767FC3046FFF75DFA144BEB6008A990
:101AE00005F1240010F05EFE0EAE03A905F13C00E6
:101AF000FEF7DEFB0E4BEB6008A810F067FA46F825
:101B0000305D0C493046FFF7BDFF029B38607B60BB
:101B1000304602940194FFF78DF938460EB0BDE8C7
:101B2000F08100BF148402081C850208FC820208B0
:101B300018830208F47E0208F0B58FB0002407462F
:101B400050200194029404F011FA012306464360E8
:101B500083601B4B46F80C3B05461A4908A8FEF764
:101B6000F3FFC82303A806930394049405940794F1
:101B7000FEF717FC3046FFF70DFA134BEB6008A990
:101B800005F1240010F00EFE0EAE03A905F13C0095
:101B9000FEF78EFB0D4BEB6008A810F017FA46F825
:101BA000305D0B493046FFF76DFF029B38607B606C
:101BB000304602940194FFF73DF938460FB0F0BD6E
:101BC0003084020825850208FC820208348302085A
:101BD000F47E020838B504460D46AC4204D0201D00
:101BE000FFF728F90834F8E738BD10B5044603C8F4
:101BF000FFF7F0FF2068FEF7DEFF204610BD10B5AE
:101C000004468030FFF7E3FE04F16C00FFF7DFFECF
:101C100004F14C00FFF7E9FF04F13C00FFF7E5FF9A
:101C200004F13800FFF706F904F12800FFF7DDFFA3
:101C3000204610BD10B5C4683CB12046FFF7DFFF59
:101C40002046BDE8104003F0CEBE10BD08B50C30F4
:101C5000FFF7D5FF08BDF8B590E80C009B1ADB1024
:101C600014BF1A4601229A1804460E466FF06045CA
:101C700004D2AA4228BF2A46174600E02F4638461B
:101C8000FEF79DFF94E80C009B1A0546C01806D08D
:101C90003146043051F8042BEA50FFF7EBF894E892
:101CA00003002B4600F108064FF0000EA6F10802D3
:101CB00091420ED053B156F8082C83E8044056F8F0
:101CC000042C46F804EC5A6046F808EC0833083651
:101CD000ECE70E1A08362E44FFF77CFF2068FEF76B
:101CE0006AFF84E8600005EBC705A560F8BD38B55C
:101CF00043688568AB4204460BD033B1184651F8AF
:101D0000042B40F8042BFFF7B5F8636808336360D1
:101D100038BDFFF7A0FF38BD70B50E461446051D4F
:101D20002B1F9E4210D064B1204655F8043C40F869
:101D3000043B2946FFF79EF8291D04F10800FFF730
:101D4000A0F810341035EBE7204670BDF7B502ABB4
:101D500003E90600019D009E00232D010446036057
:101D6000436083602811FEF719FF77190544024686
:101D70002060A56039463046FFF7CEFF6060204600
:101D800003B0F0BD091A2DE9F041CD109046161DA3
:101D9000041D2F46002F0BDD54F8043C46F8043C8C
:101DA00021463046FFF7A2F9013F08360834F1E733
:101DB00025EAE57008EBC000BDE8F08181422DE91D
:101DC000F8430446884660D091E820022268A36860
:101DD000C5EB0907F8109B1AB0EBE30F22D9FEF709
:101DE000EEFE0435064600F104082B1F99450ED07F
:101DF000B8F1040F07D055F8043C48F8043C2946D4
:101E00004046FFF737F808F108080835EDE794E891
:101E10000300FFF7DFFE2068FEF7CDFE26603E449C
:101E2000A6602FE06168891AB0EBE10F0CD8284654
:101E30004946FFF7A7FF66680546AE4222D0281D37
:101E4000FEF7F8FF0835F8E729442846FFF79AFF20
:101E500094E84800D8F80050D8F80480F31A043306
:101E600004361D442B1F98450CD0042E07D055F87E
:101E7000043C46F8043C29463046FEF7FBFF083692
:101E80000835EFE723681F4467602046BDE8F88304
:101E90002DE9F047002504469CB00560456085604B
:101EA000C56005610E46FEF77CFA6561A561E561D6
:101EB0002562656204F11400FEF773FAA562E5621B
:101EC00025636563A563E56325646564E56425654D
:101ED0006565316884F84850043104F15800FEF714
:101EE000E7F9E56625676567C4F88050C4F8845053
:101EF000C4F888503168A5670BAE1831E56710A8A3
:101F0000FFF7BAF91022294630461DF046F9109F16
:101F1000DDF84490DFF8BC820F950D960E960837D9
:101F2000A7F10805A94500F0E880199B1A98C11A85
:101F30004FEA611E1E46BEF1000F33461ADD57F808
:101F4000082C3168914233D0B1688A4202D106F13F
:101F500008032EE031698A4202D106F1100328E01D
:101F6000203656F8081C8A4201D1183321E00EF1C0
:101F7000FF3EE0E7821BD210022A0AD0032A02D0D9
:101F8000012A13D10BE0316857F8082C91420FD089
:101F90000833196857F8082C91420AD00833196899
:101FA00057F8082C914218BF034602E0034600E0B0
:101FB0003346B0EB030A294601A818BF4FF0010AC7
:101FC000FFF778F8294603A8FEF7F0FF019B43BB13
:101FD00098200593069303F0C9FF0646012343604A
:101FE000836046F80C8B039B0793054604A908A859
:101FF000FEF740FF07A93046FFF74AFF08A8FEF7A3
:1020000019FF7349069506A8FFF73CFD05A9059041
:1020100080F848A004F12800FFF769FE1CAA039B82
:1020200059E0002698200596069603F09FFF0123AD
:10203000054602A943608360C0F80080019B0793B6
:1020400008A8FEF717FFEE602E616E61AE61EE61CB
:1020500005F10C00FEF7A5F92E626E62AE62EE622B
:102060002E6305F12000FEF79CF9079B2B6408A95D
:102070006E63AE63EE6305F14400FEF7FBFE079965
:10208000AE640431EE642E65AE65EE652E6605F134
:102090006400FEF70DF9AE67EE67C5F88060C5F81D
:1020A0008460C5F88860C5F88C60C5F89060C5F894
:1020B000946008A8FEF7BEFE4549069506A8FFF7FE
:1020C000E1FC05A9059080F848A004F12800FFF77D
:1020D0000EFE019B1CAA42F8703D0AA905AB07A899
:1020E000FFF781FB06A8FEF7A5FE04A8FEF7A2FEF7
:1020F00002A8FEF79FFE083712E7109EDDF8448025
:1021000008360027A6F10803984543D00021084669
:10211000079708970997FFF75DFD169DDDF85C901E
:1021200008970835A5F10803994521D055F8082CE2
:1021300056F8083C9A4219D1294603A8FEF7BAFF7F
:10214000294605A8FEF732FF039B03B9059B0193BF
:1021500001A90AA8FFF7ECFB014607A8FFF7C7FD96
:1021600006A8FEF767FE04A8FEF764FE1035D9E75F
:102170001CA956F8083C41F85C3D0AA8FFF7D8FBBB
:10218000006807A94C30FFF719FE07A8FFF72DFDDF
:102190000836B7E7149F139D04F13C06AF420BD0FD
:1021A00055F8083B079307A90AA8FFF7C1FB0146AA
:1021B0003046FFF79CFDF1E70C990AA8FFF7A6F857
:1021C00010A8FFF7EEF920461CB0BDE8F08700BF6D
:1021D000F47E020884840208091A2DE9F0470D11E3
:1021E000924604461646A946B9F1000F04F11007BD
:1021F00006F1100814DD57F8103C48F8103C211D7A
:10220000301DFEF773FFA368B36004F10C0106F103
:102210000C00FEF76BFF09F1FF3946463C46E3E749
:1022200025EAE5700AEB0010BDE8F08781422DE950
:10223000F04104460E4643D091E880012268A3682D
:10224000C7EB080528119B1AB0EB231F17D9FEF71F
:10225000A5FC4146024606463846FFF751FA94E887
:102260008001B84504D03846FEF7FAFD1037F8E78C
:102270002068FEF7A0FC26602E44A6601DE063687F
:10228000991AB0EB211F0CD838464146FFF7A4FF3E
:1022900067680646B74210D03046FEF7E1FD1036BB
:1022A000F8E739443846FFF797FF94E805003368AC
:1022B0007168101A1844FFF72FFD23681D446560EC
:1022C0002046BDE8F08100002DE9F04700240546D6
:1022D00091468EB0046044608460C4600461984696
:1022E0000E46FEF75EF86C61AC61EC612C6249460B
:1022F00005F12400FFF71EFA414605F13000FFF713
:1023000019FA316805F140000431FDF7D1FF99E871
:1023100090000434231F9F4217D054F8043C0993C3
:1023200023B121460AA8FEF7A5FD00E00A9309980B
:1023300018B991481EF090F902E003681B699847AC
:102340000AA8FEF777FD1034E4E798E8900004341B
:10235000231F9F4217D054F8043C099323B1214610
:102360000AA8FEF787FD00E00A93099818B9834888
:102370001EF072F902E003681B6998470AA8FEF78D
:1023800059FD1034E4E731460EAF51F8043B47F8ED
:10239000283D05A8FEF76EFD8C2003F0E7FD3946C9
:1023A00000260446FFF774FD102009940A9603F0F6
:1023B000DDFD012343608360714B0360099B6A6903
:1023C000C4606B61AB69A8610AA809920A93FEF721
:1023D00031FD05A8FEF72EFD494601A8FFF7AAF931
:1023E00041463846FFF7A6F9282003F0BFFD01A9B2
:1023F000044646608660C660066146618661C661C5
:10240000066246621030FFF711FF394604F11C00E6
:10241000FFF70CFF636926699E1B3611266009A829
:10242000FEF734F9D4F80480E368564AC8EB030396
:102430009B1053439E42B14627D956B1524B9E4200
:1024400001D904F089FD1420704303F08FFD80460C
:1024500000E0B046142303FB0686C246B9F1000F24
:102460000BD0BAF1000F03D009A95046FDF720FFA9
:1024700009F1FF390AF1140AF0E76068A660C4F8B0
:102480000480E660FEF797FB41E0D4F80890C8EBC3
:1024900009039B105A43964202D8B246C14626E031
:1024A000C14506D0404609A9FDF72CFF08F11408E4
:1024B000F6E7D4F808906368324AC3EB09039B102F
:1024C00002FB1366C846B246BAF1000F0BD0B8F152
:1024D000000F03D009A94046FDF7EAFE0AF1FF3AD2
:1024E00008F11408F0E7142303FB06960EE0BAF196
:1024F000000F08D0484609A9FDF704FF0AF1FF3A8A
:1025000009F11409F3E7142303FB0686A6600026ED
:10251000102009940A9603F029FD0123436083608B
:102520001A4B0360099BEA69C460EB612B6A28625D
:102530000AA809920A93FEF77DFC3846FEF7E0FCF4
:1025400001A8FEF7DDFC6C690996082309A80C9325
:102550000A960B960D96FDF724FF09AA21463846E8
:10256000FEF740FD39462846FDF7CCFE284685F8A3
:102570003C600EB0BDE8F0872E8502084685020853
:10258000A4830208CDCCCCCCCCCCCC0CC08302082C
:1025900038B50D460446FDF7B5FE6B69636105F17C
:1025A000180104F11800FEF7A1FD04F11C0005F16B
:1025B0001C010FF083FD6B6B6363204638BD000088
:1025C000091A0D4B2DE9F041CC105C4390460546AD
:1025D00026461746002E07DD29463846FFF7D8FF66
:1025E00038353837013EF5E724EAE474382000FB3B
:1025F0000480BDE8F08100BFB76DDBB6091A2DE994
:10260000F041CD109046161D041D2F46002F0BDD06
:1026100054F8043C46F8043C21463046FEF766FD7B
:10262000013F08360834F1E725EAE57008EBC00001
:10263000BDE8F0812DE9F8430446551A1746A36812
:102640002268E8109B1AB0EBE30F0E461ED9FEF786
:10265000B6FA81468046B7420AD0B8F1000F03D0DF
:1026600031464046FEF70DFC083608F10808F2E74F
:1026700094E80300FEF71CFF4D442068FEF79BFA28
:10268000C4F800906560A560BDE8F8836568AD1A80
:10269000B0EBE50F0AD839463046FFF7AFFF616867
:1026A0000546FEF705FF6560BDE8F8830D4430463A
:1026B0002946FFF7A3FF6668AF4207D01EB129463F
:1026C0003046FEF7DEFB08350836F5E76660BDE804
:1026D000F883091A2DE9F0470D1192460446164673
:1026E000A946B9F1000F04F1100706F1100814DD36
:1026F00057F8103C48F8103C211D301DFEF7F6FC41
:10270000A368B36004F10C0106F10C00FEF7EEFCC7
:1027100009F1FF3946463C46E3E725EAE5700AEB56
:102720000010BDE8F087000082B02DE9F04FF1B055
:1027300004467B9303937D9B02930DF1180B7F9BC3
:1027400001938BE806000D46FEF724FCB04B236096
:1027500040AA002304F118081146A361E361236233
:102760006362A362E36223636363A363E36323643B
:1027700063644046FFF75EFF04F124074CAA4FF064
:10278000000311463846FFF755FF58A9226B08464B
:10279000FFF79FFF616B06460DF5C87AFEF7F6FE60
:1027A000666304F13C064FF0000352465146304642
:1027B000A146FFF73FFF974B49F8303BDBF8043069
:1027C00005EBC30B5D453AD029465046FEF7EEFBBC
:1027D000649921B929464046FEF7C7FE2AE0183120
:1027E00010A8FEF749FD119A109B05929A4208D055
:1027F000194640460493FEF7B8FE049B059A083339
:10280000F3E710A8FEF7CDFE64991CA81831FEF777
:1028100033FD239A229B05929A4208D019464846D6
:102820000493FEF7E5FE049B059A1033F3E71CA81A
:10283000FEF7B7FE65A8FEF7FDFA0835C2E7039A72
:102840007C9B154602EBC308454523D0294664A866
:10285000FEF7ACFB649921B929463846FEF785FEA0
:1028600013E0183128A8FEF707FDDDF8B0A0DDF869
:10287000AC90CA4506D049463846FEF776FE09F1C7
:102880000809F6E728A8FEF78CFE65A8FEF7D2FA3D
:102890000835D9E7019A809B154602EBC3084545E8
:1028A00021D0294664A8FEF781FB649921B9294605
:1028B0003046FEF75AFE11E0183134A8FEF7DCFC72
:1028C000DDF8F8903D9F4F4505D039463046FEF77C
:1028D0004CFE0837F7E734A8FEF763FE65A8FEF75D
:1028E000A9FA0835DBE7029A7E9B154602EB03182E
:1028F000454500F08680294608A8FEF757FB05F1FC
:1029000008010AA8FEF752FB08990A9B29BB2BB9BC
:10291000294604F13000FEF76BFE6AE003F118016E
:1029200040A8FEF7A9FCDDF81091439E04F13007A2
:10293000B14510D029460CA8FEF7A3FA31460EA8DF
:10294000FEF79FFA0CA93846FEF788FE0CA8FEF7A2
:102950007DFA0836ECE740A849E01831E3B94CA805
:10296000FEF78AFC569F559EB74213D031460CA8FD
:10297000FEF787FA0A9B0E930BA90FA8FEF77AFAC7
:102980000CA904F13000FEF769FE0CA8FEF75EFA10
:102990000836E9E74CA82AE058A8FEF76DFCDDF8F8
:1029A0008891619EB14521D00A9964A81831FEF73B
:1029B00063FCDDF8A0B1679F04F1300ABB4510D07D
:1029C00031460CA8FEF75DFA39460EA8FEF759FA13
:1029D0000CA95046FEF742FE0CA8FEF737FA08375E
:1029E000ECE764A8FEF7DDFD0836DBE758A8FEF744
:1029F000D8FD0BA8FEF71EFA09A8FEF71BFA103542
:102A000076E7204671B0BDE8F04F02B0704700BFD6
:102A1000E4820208F082020810B50446FEF7BAFA12
:102A20002046044B40F8183B0349FEF78DF820463A
:102A300010BD00BF788202085F8502082DE9F043CF
:102A400089B0002507464FF4C4700095019503F046
:102A50008DFA0123064643608360424B46F80C3BE7
:102A60000446414902A8FEF76FF8304604F5BA76ED
:102A7000FFF7D2FF3D4BE360314604F13C00FDF728
:102A800017FC04F15C0925656565A56504F1640220
:102A900004F1DC012B4642F8082C42F8043C02F811
:102AA000183B91424FF00005F5D104F1D80084F8AD
:102AB000D450FEF747F904F58870FEF743F94FF05C
:102AC000280804F5A670C4F84851C4F84C51C4F85D
:102AD0005051C4F85451C4F85881C4F85C51FDF702
:102AE00060FC04F5B070C4F86051C4F86451C4F8D7
:102AF0006851C4F86C81C4F87051FDF752FC04F1C0
:102B000010013046FDF7D4FB194948460FF00FFD80
:102B1000184904F174000FF00AFD174904F18C0004
:102B20000FF005FD154904F1A4000FF000FD08AEFB
:102B3000134904F1BC000FF0FAFC02A80FF046FAAA
:102B400046F81C4D0F493046FEF79CFF019B38604C
:102B50007B60304601950095FEF76CF9384609B068
:102B6000BDE8F083DC830208998402089C82020895
:102B70001C85020825850208668502086F85020803
:102B800079850208F47E02082DE9F04188B000251D
:102B900007464FF4C2700095019503F0E7F9012351
:102BA000064643608360494B46F80C3B044648495F
:102BB00002A8FDF7C9FF304604F1BC06FFF72CFF61
:102BC000444BE360314604F13C00FDF771FB04F136
:102BD0005C0825656565A56504F1640204F1C4011E
:102BE0002B4642F8082C42F8043C02F8183B91426C
:102BF0004FF00005F5D104F110013046FDF758FB08
:102C000004F1D000FEF79EF804F58470FEF79AF800
:102C1000282304F5A470C4F8543184F84051C4F852
:102C20004451C4F84851C4F84C51C4F85051C4F848
:102C30005851FDF7B6FB012304F5AE70C4F86431BA
:102C4000C4F85C51C4F86051C4F86851C4F86C51C0
:102C5000FDF7A7FB322304F5B870C4F87831C4F847
:102C60007051C4F87451C4F87C51C4F88051FDF718
:102C700098FB194940460FF05AFC184904F17400BA
:102C80000FF055FC164904F18C000FF050FC15496B
:102C900004F1A4000FF04BFC08AE13481DF0DCFC5F
:102CA00002A80FF093F946F81C4D10493046FEF784
:102CB000E9FE019B38607B60304601950095FEF788
:102CC000B9F8384608B0BDE8F08100BFF8830208C3
:102CD0009F840208C08202086F850208838502086B
:102CE0008D850208948502089B850208F47E0208FF
:102CF00038B504460D46FEF74DF92046084B40F81E
:102D0000183B29460FF04EFD002323636363A36342
:102D1000E363236404F13000FDF743FB204638BD34
:102D2000FC820208F0B589B00746002650200096C4
:102D3000019603F01BF90123054643608360114BA4
:102D400045F80C3B0446104902A8FDF7FDFE02A918
:102D5000284608ADFFF7CCFF0C4BE36002A80FF04C
:102D600035F945F81C4D0A492846FEF78BFE019BB4
:102D700038607B60284601960096FEF75BF838467F
:102D800009B0F0BD4C8402088D850208508302080A
:102D9000F47E0208F0B589B0074600265020009660
:102DA000019603F0E3F80123054643608360114B6D
:102DB00045F80C3B0446104902A8FDF7C5FE02A9E0
:102DC000284608ADFFF794FF0C4BE36002A80FF014
:102DD000FDF845F81C4D0A492846FEF753FE019BB5
:102DE00038607B60284601960096FEF723F8384647
:102DF00009B0F0BD68840208948502086C8302085B
:102E0000F47E020870B505460E461446B54207D05A
:102E10001CB129462046FEF73EF838353834F5E730
:102E2000204670BDF7B502AB03E906000023019C04
:102E300003604360836038235C430E4A009EE310C6
:102E40005A43054606EB040708D00B4B9A4201D9BA
:102E500004F082F8204603F089F8024614442A6000
:102E6000AC6039463046FFF7CDFF6860284603B0B6
:102E7000F0BD00BFB76DDBB6244992042DE9F047E1
:102E800091F8C880B8F1030FA2B006460C465DD099
:102E9000B8F1040F20D0B8F1010F40F08E8022AFBE
:102EA0000A2347F8783D06AD3A4601F1CC09284699
:102EB000B031FDF75BFF29464846FFF769FB28461E
:102EC000FEF743F849462846FDF7E5FF0295CDF8A1
:102ED0000C803B4602AA68E022AF4FF00B0A47F88D
:102EE00078AD06AD3A4601F1CC092846B031FDF780
:102EF0003DFF29464846FFF74BFB2846FEF725F8DD
:102F000004F582783A4604F198012846CDF810A0DD
:102F1000FDF72CFF29464046FFF73AFB2846FEF70F
:102F200014F849462846FDF7B6FF414614A8FDF7B8
:102F3000B2FF0223019300953B469DE80600304610
:102F4000FFF770FF14A8FEF700F832E0D1F83C312B
:102F50000F2B01D111230EE0012B01D105230AE033
:102F6000022B01D1062306E0032B01D1072302E047
:102F7000042B01D10823029306AD02AA04F1CC0769
:102F800004F198012846FDF7F1FE29463846FFF77F
:102F9000FFFA2846FDF7D9FF39462846FDF77BFFA3
:102FA0000123059304956B4604AA06CA3046FFF731
:102FB00039FF2846FDF7C9FF03E0002303604360A3
:102FC0008360304622B0BDE8F0872DE9F04F91F8DC
:102FD0003471022FA9B005460C4632D10DF1A0087C
:102FE0004FF0010B48F878BD0CAE424601F1C40A1F
:102FF00030469831FDF7BAFE31465046FFF7C8FA21
:103000003046FDF7A2FF04F1FC09424604F18001BD
:103010003046CDF828B0FDF7A9FE31464846FFF707
:10302000B7FA3046FDF791FF51463046FDF733FFC2
:1030300049461AA8FDF72FFF8DE8C00043466A46AF
:10304000D9E0012F32D128AF4FF0020847F8788D30
:103050000CAE3A4601F1C40A30469831FDF786FEBF
:1030600031465046FFF794FA3046FDF76EFF04F103
:10307000FC093A4604F180013046CDF82880FDF77E
:1030800075FE31464846FFF783FA3046FDF75DFF8F
:1030900051463046FDF7FFFE49461AA8FDF7FBFEF4
:1030A0000296CDF80C803B4602AAA4E0052F04D07E
:1030B00027F00403083B012B33D828AF4FF0000A58
:1030C00047F878AD0CAE3A4604F1C40904F1980112
:1030D0003046FDF74BFE31464846FFF759FA304679
:1030E000FDF733FF04F1FC083A4604F18001304655
:1030F000CDF828A0FDF73AFE31464046FFF748FAE2
:103100003046FDF722FF49463046FDF7C4FE4146F2
:103110001AA8FDF7C0FE0223059304963B4604AAB5
:1031200069E0072F32D128AF4FF0020847F8788DB9
:103130000CAE3A4601F1C40A30469831FDF716FE4E
:1031400031465046FFF724FA3046FDF7FEFE04F103
:10315000FC0903233A4604F1800130460A93FDF747
:1031600005FE31464846FFF713FA3046FDF7EDFEFF
:1031700051463046FDF78FFE49461AA8FDF78BFEF3
:103180000696CDF81C803B4606AA34E00A2F34D1BF
:1031900028AF032347F8783D0CAE3A4601F1C40A44
:1031A00030469831FDF7E2FD31465046FFF7F0F921
:1031B0003046FDF7CAFE04F1FC093A464FF002081A
:1031C00004F180013046CDF82880FDF7CFFD31466F
:1031D0004846FFF7DDF93046FDF7B7FE5146304669
:1031E000FDF759FE49461AA8FDF755FE0896CDF899
:1031F00024803B4608AA06CA34E00B2F3CD128AFF6
:103200004FF0040A47F878AD0CAE3A4601F1C40914
:1032100030469831FDF7AAFD31464846FFF7B8F928
:103220003046FDF792FE04F1FC083A4604F18001B5
:103230003046CDF828A0FDF799FD31464046FFF70E
:10324000A7F93046FDF781FE49463046FDF723FEDB
:1032500041461AA8FDF71FFE02230B930A9697E832
:10326000060008AB2846FFF7DDFD1AA8FDF76DFE46
:103270003046FDF76AFE03E000230360436083608D
:10328000284629B0BDE8F08F93422DE9F74F044658
:10329000884691469B467AD09B1A456882683D4F86
:1032A000521B4FEAE30AD21007FB0AFA7A4392450F
:1032B0003ED86A1AD6107E43B24501921BD2EE1A4E
:1032C0002A46294630460193FDF70AFE6268019BB3
:1032D00013446360C8EB0603DB105F43002F07DD78
:1032E000383D383E31462846FFF752F9013FF5E7B1
:1032F0004246594618E0019B09EB03072A46594606
:103300003846FDF7DDFD6368C6EB0A0A382202FB8A
:103310000A32626029464046FDF7E2FD6368019A81
:1033200013446360424639464846FFF749F92EE0A8
:10333000194A5146FEF722FB054650B1174B9842F9
:1033400001D903F009FE3820684302F00FFE06465B
:1033500000E00646324641462068FFF753FD5946D5
:1033600002464846FDF7ACFD616802464046FFF75D
:1033700049FD074694E80300FEF71EFB2068FDF7B1
:103380001AFC382384E8C00003FB0565A56003B080
:10339000BDE8F08FB76DDBB6AA8502082449920418
:1033A00073B5046805464FF000068DF800600C1BED
:1033B000FFF76AFF2868204402B070BDF0B50D46E3
:1033C00089B00446114605F114001646FCF793FF38
:1033D00020B1002323606360A3603DE0696B21B1ED
:1033E0000B682046DB68984736E0EF6AAD6A0091CB
:1033F000019102910835A5F108039F421FD055F8AD
:10340000081C03A81431FCF753FF314603A8FCF74E
:103410005AFF0028EED055F8081C91F84830002BD0
:10342000E8D0324603A8FFF7C9FF049B039A01992D
:103430006846FFF7B5FF03A8FEF7C9FADAE7019A75
:10344000009B6260029A2360A2600023684600939A
:1034500001930293FEF7BBFA204609B0F0BD0000CD
:103460002DE9F04FC36F466B013391B004460D4612
:10347000C367002E3ED0336830469B699847226F61
:10348000E36E04F114069A42314628460AD1FCF74D
:103490001AFF20B1606B03685B68984714E0294607
:1034A000204621E0FCF70FFF676B04F16C083B68D6
:1034B000E8B1D3F81490224629460BA8FCF7FEFF8A
:1034C0000BAA41463846C84729462046FCF71AFF52
:1034D000616B0B6806A89B68984721460BA806AA53
:1034E000FCF792FF0BA93046FCF70CFFD2E0D3F8B3
:1034F0001090E0E76C48DFF8B48100F065FB2946E6
:103500002046FCF7FFFE009601960296039604966D
:103510000596E66B276C0836A6F108094F4521D0C1
:1035200056F8081C0BA81431FCF7C2FE21460BA864
:10353000FCF7E1FE60B156F8082C136FD26E9B1AAF
:10354000DB1042465A4303D1494603A8FEF7CFFB9E
:1035500056F8080C236F016FE26E6C30FFF720FF06
:103560000836D9E704F1140841462046FCF7ABFEC3
:10357000002851D0D4F82C90A66A0836A6F1080786
:10358000B94549D056F8081C0BA81431FCF790FE39
:1035900041460BA8FCF797FE0028EED03946684656
:1035A000FEF7A5FB56F8081C0B6DCA6C9B1ADB08CE
:1035B000E3D0224606A8FFF701FF56F8083CD3F8EF
:1035C00050B0DF6C0837A7F1080AD34520D057F870
:1035D000081C0BA81431FCF76BFE21460BA8FCF766
:1035E0008AFE60B157F8081C304A0B6FC96E5B1A2F
:1035F000DB105A4303D1514603A8FEF778FB57F876
:10360000080C079B016F069A6C30FFF7C9FED9E7DB
:1036100006A8FEF7DCF9B0E79DE8C000B74205D088
:10362000294656F8080BFFF71BFFF7E7049F039E98
:10363000B74205D0294656F8080BFFF711FFF7E708
:10364000A56AE66AB54216D02F460835AE4211D0BB
:1036500029680BA81431FCF72BFE396806A8143131
:10366000FCF726FE06A90BA8FCF757FE002818BF9A
:103670002F46EAE73E4631680BA81431FCF718FEE6
:103680000BA94046FCF73EFE03A8FEF7AEFA6846DB
:10369000FEF7ABFAE56E216F2846FEF78DF9256738
:1036A00011B0BDE8F08F00BFC2850208B76DDBB670
:1036B0002DE9F04F0C46AFB081469046FCF7FEFF77
:1036C00094F83C3023B341462046FCF726FE002800
:1036D00000F0E58021466069FFF7C2FE616920A81D
:1036E0001431FCF7E5FD20A92046FCF70BFEEAE7C4
:1036F00021466069FFF7B4FE616920A81431FCF728
:10370000D7FD20A92046FCF7FDFD04A8FEF75FF9D0
:1037100020A8FCF7BBFF414620A8FCF7FEFD30B90E
:1037200041462046FCF7F9FD002800F0B88020A8AB
:10373000FCF7ACFF214620A8FCF7EFFD00285CD089
:1037400012A8FDF7FFFA12A9E069FDF7E3FC0028D3
:103750004FD0656912A920A8FDF79DFB286F6B6FFC
:10376000984207D010B120A9FDF795FB2B6F383395
:103770002B6730E04E4A012105F16C00FEF7FEF8A0
:10378000064650B14B4B984201D903F0E5FB382077
:10379000704302F0EBFB074600E007462B6FE86E34
:1037A000181A381802D020A9FDF775FB3A46296F80
:1037B000E86EFFF727FB296F8246E86EFEF7FCF8FC
:1037C000E86EFDF7F8F90AF138032B67382303FB9D
:1037D0000676EF666E6720A8FDF7B7FB20A8FCF71A
:1037E00055FF20A92046FCF78DFD12A8FDF7ADFB83
:1037F00003E012A8FDF7A9FB99E72246616904A836
:10380000FFF7DCFD049B059A9A423FF471AF214615
:1038100007A8FCF74DFD059F049EB7423FF468AF33
:10382000059920A83839FDF736FB059838380590FA
:10383000FDF78BFB27A90CA8E5690DF1B80A0EF07E
:10384000B1FF20A8FDF7A4FA2D9BD5F820B04AF8C7
:10385000AC3DED691035A5F110039B4517D055F827
:10386000101C12A818310EF09DFF0CA912A8FDF72C
:1038700060FD019012A80EF0A9FB019B002BE9D07E
:1038800055F8100C03685146DB689847E2E70CA82E
:103890000EF09CFB20A8FDF758FB3836BDE721460B
:1038A0004846FCF705FD48462FB0BDE8F08F00BF45
:1038B00000850208244992042DE9F04F9748D5B0BD
:1038C0001CF0CAFE96481CF0C7FE0BA8FFF7B6F81E
:1038D0000DA837ADFFF758F992481CF0BDFE0BA9B3
:1038E0002846FDF73DFB0DF1740B0DA939A8FDF736
:1038F00037FB0DF1FC0902230BA958461C934FF02E
:10390000010A1B95FDF72CFB0BA9484629AECDF803
:103910007CB0CDF880A0FDF723FB0DA941A8FDF7F1
:103920001FFB0DA93046CDF89090CDF894A0FDF77F
:1039300017FB48202F96CDF8C0A002F017FB2FAF41
:10394000079097E8030003AB83E8030024AC94E8F6
:10395000030001AB83E80300209B00931BAA06CA67
:103960001F9B0798FEF7E0FE4FF00008079B0F93A0
:103970001020CDF8408002F0F9FA6B4B0360079BF2
:10398000C360C0F804A0C0F808A010902AA8FDF7F2
:1039900051FA4846FDF75AFA1EA8FDF74BFA3AA825
:1039A000FDF748FA38A8FDF745FA60481CF054FEC8
:1039B00011A8FEF76DF813A8FEF7BEF815A8FFF7DB
:1039C000B1F917A8FFF7E6F959481CF045FE1FA802
:1039D000FCF75CFE0F9B199310A91AA8FDF74AFA91
:1039E0000BAA11A93846FDF7C5FA0BAA13A933A8EB
:1039F000FDF7C0FA02231C931B971BAA09AB06CA4A
:103A00002046FEF7A3F90DAA15A92846FDF7B2FA3C
:103A10000DAA17A93BA8FDF7ADFA02231E931D9529
:103A20009BE806000AAB3046FEF790F9224619A93A
:103A300033464846FEF748FC3046FDF761FA3BA89E
:103A4000FDF70EFA2846FDF70BFA2046FDF758FA67
:103A500033A8FDF705FA3846FDF702FA1AA8FDF774
:103A6000E9F91E2320462593CDF89080CDF8988063
:103A7000CDF89C80CDF8A080FCF793FC2146304621
:103A8000FCF7B8FD2B4A414630460EF06DFD01466D
:103A900038460EF08EFB284938460EF0B1FD01463F
:103AA00028460EF086FB37981CF026FD28460EF0BF
:103AB0008DFA38460EF08AFA30460EF087FA224622
:103AC00049462846FFF7F4FD29462046FCF71AFC34
:103AD0004BA8FDF715FA48A8FDF712FA47A8FDF71D
:103AE000A9F945A8FDF7A6F918A8FDF7A3F916A8A6
:103AF000FDF7A0F914A8FDF79DF912A8FDF79AF9B2
:103B000010A8FDF797F90EA8FDF794F90CA8FDF79A
:103B100091F9404655B0BDE8F08F00BFCC85020852
:103B2000EF8502080B8602088883020828860208AF
:103B30004486020856860208EB84020830B5154C0C
:103B4000154D89B0204602F067FB144A14492046FF
:103B5000102401F043FF2246002128461BF01DFBE4
:103B600028462D2101F0AAFD152307930423059370
:103B70000123049306201621052200238DE80F005F
:103B80000694072327220921064800F04EF809B0C1
:103B900030BD00BF680500206C05002098010020A2
:103BA00031630008B00400204FF06043D3F8802E4A
:103BB000D10708D5D3F8002ED20704D51A68002AF9
:103BC000FCD0C2B21A70704710B50446FCF752FB25
:103BD000013C14F8010F10B1FFF7E6FFF9E7BDE86B
:103BE0001040FCF757BB83681A6843681A4214BF39
:103BF00001200020704738B5102204460D460021F0
:103C00001BF0CBFA2046294601F058FD204638BD6E
:103C100038B5102204460D4600211BF0BEFA20469E
:103C2000294601F05EFD204638BDF8B504460F4632
:103C30009DF9241015461E46FFF7DDFF9DF928105B
:103C400004F11000FFF7D7FF9DF92C1004F12000BC
:103C5000FFF7D1FF9DF9301004F13000FFF7CBFFE3
:103C60009DF9341004F14000FFF7C5FF394604F117
:103C7000500000F073F9314604F16400FFF7C8FF0B
:103C8000294604F17400FFF7C3FF9DF9181004F1F1
:103C9000840000F063F99DF9201004F19800FFF70B
:103CA000B7FF9DF91C1004F1A800FFF7B1FF2046F3
:103CB000F8BD07EE901AF5EEC07AF1EE10FA10B5E5
:103CC000044600F1500006DB00F074F8A36E226F8A
:103CD0001B04136010BDB7EE007A77EE877A17EEFB
:103CE000901A00F067F8236FA26E1A6010BD07EEFD
:103CF000901AF5EEC07AF1EE10FA10B5044600F114
:103D0000840008DB00F056F8D4F89C30D4F8A420E6
:103D10001B04136010BDB7EE007A77EE877A17EEBA
:103D2000901A00F047F8D4F8A430D4F89C201A6018
:103D300010BDD0F88030826F1A607047D0F8B43070
:103D4000D0F8AC201A6070472030FFF74CBFFFF767
:103D50004ABF4030FFF747BF1030FFF744BF303055
:103D6000FFF741BFDFF830D0002103E00B4B5B5879
:103D7000435004310A480B4B42189A42F6D30A4A80
:103D800002E0002342F8043B084B9A42F9D301F0C9
:103D9000B7FBFCF72FFA70470000022010C702089B
:103DA000980100206804002068040020EC1D002019
:103DB000FEE7000030B507EE101A244B02681A60C7
:103DC000B5EEC07AF1EE10FA89B024D4F7EE007A9D
:103DD000B4EE677AF1EE10FAC8BFB0EE677AD0EDB4
:103DE000027AF8EE677A002367EE877A03930493EA
:103DF000059306930793037CFCEEE77A6022013B70
:103E0000C0ED037A0192CDED027A032B12D8DFE8E0
:103E100003F0170513159FED0E7AE0E70424457CA7
:103E20000A4801A9224601F067F9214607484DB129
:103E300000F0F3FB09B030BD0824F0E70C24EEE7F6
:103E40000024ECE701F0C6F9F4E700BF800500208C
:103E5000000000008368ABB107EE903AD0ED036A32
:103E6000B8EE677AF8EE666AC6EE877AB7EE007A41
:103E7000F4EE477AF1EE10FAC8BFF0EE477A17EE8B
:103E8000900A7047DFED017AF9E700BF00000000FB
:103E9000F0B52E4C0268226087B00E460546FFF74B
:103EA000D9FF116A41F211131942074608D1116A6C
:103EB00040F24443194202BF136823F00103136028
:103EC00001F062FA694601A800F0DCFE2B68204A86
:103ED000934236D02AD8A2F57C42934206D002F50E
:103EE0008062934202D0B3F1804F1DD100F09AFE60
:103EF000049A0090731EE3601649009B02B95B00B0
:103F0000B3FBF1F3013B6360104800232361A3601E
:103F100001F0ACF839462846FFF74CFF2268AE6046
:103F2000136843F00103136007B0F0BD0A4A9342DF
:103F300007D002F58062934203D0A2F5006293425B
:103F4000F2D100F087FE059A0090D3E780050020AB
:103F50000000014040420F000044014030B50D46D2
:103F6000044689B04249284601F056FB404920608A
:103F7000284601F06DFBC0F3C32323742368C0F30C
:103F8000C0300133607402D13A4801F0F9FA236875
:103F9000394A934218D102F59C32516C41F001012B
:103FA0005164526C02F001020192019A334A934229
:103FB00026D1334B5A6C42F400325A645B6C03F4E2
:103FC00000330693069B36E0B3F1804F0AD12C4AAA
:103FD000116C41F001011164126C02F001020292B5
:103FE000029AE3E7274A934218D102F50D32116C89
:103FF00041F002011164126C02F002020392039A72
:10400000214A934217D11E4B5A6C42F480225A64C3
:104010005B6C03F480230793079B0CE01B4A9342DD
:1040200018D1174B1A6C42F004021A641B6C03F08F
:1040300004030493049B0E49284601F0B1FA0023BF
:104040002571A360E36044F620612046FFF720FF5E
:1040500009B030BD0E4A9342A8D1094B5A6C42F4C4
:1040600080325A645B6C03F480330593059BE2E76E
:10407000F88602087F8602080000014000440140E3
:1040800000380240000400400048014000080040A1
:10409000004001400E4B02681A6082685A60C26894
:1040A0009A600269DA6042691A6100229A6190F9A5
:1040B0001920013204D1082205485A6100F075BA6E
:1040C00090F9182001320CBF04220C22F4E700BF43
:1040D000BC050020F0B50E4685B00446394930468F
:1040E000154601F099FA38490746284601F094FA36
:1040F0000146384601F072FA344B2060984213D0E2
:1041000003F58063984251D0A3F55043984217D1EC
:104110002F4B1A6C42F400321A641B6C03F4003308
:104120000293029B01230AE0294B5A6C42F01002D1
:104130005A645B6C03F010030193019B00236360DE
:104140002049304601F02CFA1F49284601F028FA90
:10415000721C03D00121304600F0FAF86B1C03D02A
:104160000121284600F0F4F84FF41653A360002311
:10417000E36023616361267665762046FFF78AFF58
:104180002268144B9A420FD1134B01221A60134B31
:1041900004F11805206861681A4603C20834AC426D
:1041A0001346F7D12068106005B0F0BD084B5A6C7B
:1041B00042F020025A645B6C03F020030393039BDC
:1041C0000523BCE7B488020860880208001001409B
:1041D000003802400044004018060020FC05002082
:1041E0000368034A18681360C0F34010704700BFAB
:1041F000BC05002010B5046801460846FFF7F0FF33
:104200000028FAD06068C0F3080010BD0368034AB4
:1042100018681360C0F3C010704700BFBC050020D1
:1042200038B5056804462046FFF7F0FF0028FAD0AD
:10423000C1F30801696038BD7FB507284FD8DFE8B2
:1042400000F004121E2A364E4E42274B27481A6BA6
:1042500042F001021A631B6B03F001030093009B01
:1042600007B05DF804FB204B21481A6B42F00202B4
:104270001A631B6B03F002030193019BF0E71A4BD7
:104280001C481A6B42F004021A631B6B03F0040310
:104290000293029BE4E7144B17481A6B42F00802A2
:1042A0001A631B6B03F008030393039BD8E70E4BC1
:1042B00012481A6B42F010021A631B6B03F01003D2
:1042C0000493049BCCE7084B0D481A6B42F0800224
:1042D0001A631B6B03F080030593059BC0E7094835
:1042E00001F04EF90020BBE7003802400000024018
:1042F0000004024000080240000C0240001002408E
:10430000001C0240A186020830B5054687B0C0F304
:1043100003100C4605F00F05FFF78EFF012304F094
:104320000F0203FA05F5094B019553F82230029369
:10433000C4F302130393C4F3C314032301A9049326
:10434000059400F0BDFC07B030BD00BFC486020874
:1043500038B500F00F05C0F303100C46FFF76CFFF3
:104360006900C36803228A4023EA0203032CC36066
:10437000C36828BF00248C401C43C46038BD0000C3
:10438000054B186830B901221A60044B044A1A60C0
:1043900000F08CBF704700BF580600201C060020AC
:1043A000000C004008B5044B1B680BB9FFF7E8FF91
:1043B000024B586A08BD00BF58060020000C0040A0
:1043C000034B1B685863DA6842F00202DA607047F8
:1043D0001C060020034B1A68D36823F00203D36045
:1043E000704700BF1C060020024B1B686FF00202E2
:1043F0001A6170471C06002010B50021044604F025
:104400000F04FFF781FF0120A04010BD70B50446E6
:104410004B1C0E4621700DD0C1F30310FFF70CFFAB
:1044200005463046FFF7E8FF05F1100318356060D8
:10443000A360E56070BD90F90000FFF789BF012916
:1044400090F9000018BF0021FFF75EBF08B500F02B
:104450009BFFBDE8084000F003BD00002DE9F843D4
:104460000568C2682B69C16923F4405313432B616B
:10447000074683680069EA680343786922F41642B4
:10448000034322F00C020B431343EB606B69BA69E0
:1044900023F440731343B1F5004F6B61404B47D198
:1044A0009D4203D003F580639D4229D100F0D2FBE9
:1044B0007E68192404FB00F376004FF06408B3FB18
:1044C000F6F3B3FBF8F31E0100F0C4FB7B68604316
:1044D0005B00B0FBF3F900F0BDFB7B6860435B0061
:1044E000B0FBF3F3B3FBF8F308FB13931B01323378
:1044F000B3FBF8F303F00F033343AB60BDE8F8837D
:1045000000F090FB7E68192404FB00F376004FF066
:104510006408B3FBF6F3B3FBF8F31E0100F082FB73
:104520007B6860435B00B0FBF3F900F07BFBD4E7F2
:104530009D4202D01B4B9D421AD100F08BFB7E683E
:10454000192404FB00F3B6004FF06408B3FBF6F344
:10455000B3FBF8F31E0100F07DFB7B6860439B001A
:10456000B0FBF3F900F076FB7B6860439B00B7E794
:1045700000F058FB7E68192404FB00F3B6004FF0EE
:104580006408B3FBF6F3B3FBF8F31E0100F04AFB3B
:104590007B6860439B00B0FBF3F900F043FBE3E76B
:1045A0000010014000140140704710B5044630B3BC
:1045B00090F8393003F0FF021BB980F83820FFF77C
:1045C000F3FF2268022384F83930D36823F40053C0
:1045D000D3602046FFF742FF23681A6922F4904215
:1045E0001A615A6922F02A025A61DA6842F40052CA
:1045F000DA6000200123E06384F8393010BD012027
:1046000010BD036A10B504248C4023EA040303623E
:10461000036A8A401A43026210BD10B504460422A0
:104620000068FFF7EEFF23685A6C42F400425A64B8
:104630001A6842F001021A60002010BD03682DE9DB
:10464000F341DF07044643D423689E0700F18F80BF
:1046500023681A0700F1DE8023685B0732D5914B8F
:10466000914D1A6C42F080521A641B6C03F0805317
:104670000193019B2B6843F480732B6000F012FCC4
:1046800006462B68D90540F1E780884D854E00230A
:104690002B7000F007FC41F288380746336F9A0709
:1046A00000F1E180237A2B70A368002B00F0E980F1
:1046B00000F0F8FB7B4D064641F288372B6F9B07D5
:1046C00040F1D880A269002A40F0F880002015E06F
:1046D000744B9A6802F00C02042A07D09A6802F020
:1046E0000C02082A0DD15B685D020AD56D4B1B6870
:1046F0009803A9D56368002BA6D1012002B0BDE8BC
:10470000F0816B4D674E00232B7000F0CBFB41F224
:10471000883807463368990312D423792B7063686D
:10472000ABB100F0BFFB5F4D064641F288372B6806
:104730009A0389D400F0B6FB801BB842F7D904E095
:1047400000F0B0FBC01B4045E4D90320D6E700F0E1
:10475000A9FB544D064641F288372B689B037FF531
:1047600073AF00F09FFB801BB842F6D9EDE74D4BCD
:104770009A6812F00C0F07D09A6802F00C02082A0F
:1047800018D15B685E0215D4464A13689D0702D5AE
:10479000E368012BB1D11168F82393FAA3F3B3FABC
:1047A00083F32069DBB200FA03F321F0F8010B4335
:1047B00013604DE7E2683F4BEAB101221A6000F056
:1047C00071FB384D06462B6898070ED52A68F823EA
:1047D00093FAA3F3B3FA83F32169DBB201FA03F38B
:1047E00022F0F80213432B6032E700F05BFB801BE2
:1047F0006428E8D9A9E71A6000F054FB294D064661
:104800002B6899077FF524AF00F04CFB801B6428D0
:10481000F6D99AE76269284B7AB101221A6000F052
:1048200041FB204D06466B6F9F073FF515AF00F02B
:1048300039FB801B6428F6D987E71A6000F032FB49
:10484000184D06466B6F98077FF506AF00F02AFB00
:10485000801B6428F6D978E700F024FB801B6428CD
:104860007FF60FAF71E700F01DFBC01B40457FF6E0
:1048700015AF6AE700F016FB801BB8427FF61EAF4B
:1048800063E700F00FFB074D064641F288372B6FB8
:1048900098077FF517AF00F005FB801BB842F6D9EB
:1048A00053E700BF003802400070004070380240FB
:1048B0000238024000004742800E47422C4DAB6850
:1048C00003F00C03082B3FF418AF2A4E0023022AF2
:1048D000336040D100F0E6FA07462B68990134D4E2
:1048E00047F6C07191FAA1F1B1FA81F14FF4403766
:1048F00097FAA7F7B7FA87F74FF0706090FAA0F031
:10490000B0FA80F0226AE3691343626AC9B202FA1C
:1049100001F1A26A52080B43013AF9B28A401343EB
:10492000E26A134CC1B28A4013436B6001233360C7
:1049300000F0B8FA054623689A013FF5C7AE00F0CB
:10494000B1FA401B6428F6D9FFE600F0ABFAC01BB1
:104950006428C2D9F9E600F0A5FA04462B689B0149
:104960007FF5B4AE00F09EFA001B6428F6D9ECE6A1
:1049700000380240600047427C4B1A6802F00F0288
:104980008A422DE9F04105460E467DD2CAB21A7020
:104990001B6803F00F03994202D00120BDE8F081AB
:1049A0000268960706D5724980688B6823F0F00389
:1049B00003438B60D40713D42A68500700F1CE80DC
:1049C000130707D56A4A2969936823F4604343EAC9
:1049D000C10393600F2000F069FC0020BDE8F08166
:1049E0006A68634B012A1ED11B6813F4003FD4D0C0
:1049F0005F4CA36823F003031343A36000F052FA53
:104A00006B68012B064618D141F28837A36803F082
:104A10000C03042BD0D000F045FA801BB842F5D926
:104A20000320BDE8F081911E01291B6802D813F014
:104A3000007FDCE713F0020FD9E7022B0CD141F223
:104A40008837A36803F00C03082BB5D000F02AFACE
:104A5000801BB842F5D9E3E7032B12D141F2883528
:104A6000A36800F01FFA801BA842F9D9D8E700F02C
:104A700019FA801BB842D3D8A36813F00C0FF6D1F3
:104A80009AE741F28837F7E70268910706D5384977
:104A900080688B6823F0F00303438B60D20709D44E
:104AA000324BF2B21A701B6803F00F039E427FF480
:104AB00074AF81E76A682E4B012A1DD11B6813F47D
:104AC000003F3FF46AAF2A4CA36823F0030313436B
:104AD000A36000F0E7F96B68012B074616D141F29D
:104AE0008838A36803F00C03042BD9D000F0DAF95E
:104AF000C01B4045F5D993E7911E01291B6802D8D8
:104B000013F0007FDDE713F0020FDAE7022B0CD180
:104B100041F28838A36803F00C03082BC0D000F0E2
:104B2000C1F9C01B4045F5D97AE7032B13D141F2F7
:104B30008835A36800F0B6F9C01BA842F9D96FE721
:104B400000F0B0F9C01B40453FF66AAFA36813F010
:104B50000C0FF5D1A4E741F28838F7E70449E8687B
:104B60008B6823F4E05303438B6029E7003C024049
:104B7000003802401A4A936803F00C03042B10B566
:104B800003D0082B03D0174810BD174810BD51683B
:104B9000536801F03F0113F4800F47F6C074536867
:104BA00094FAA4F0B0FA80F0C0B203EA040323FA46
:104BB00000F314BF0C480B48B0FBF1F05843084B0E
:104BC0004FF440325B6892FAA2F2B2FA82F2D2B2A9
:104BD00003F44033D34001335B00B0FBF3F010BD6E
:104BE000003802400024F40000127A0008B5FFF7F4
:104BF000C1FF094B9A68F02393FAA3F3B3FA83F346
:104C000002F0F002DBB222FA03F3044AD35CD8408C
:104C1000034B186008BD00BF003802400889020835
:104C2000A001002008B5FFF7E1FF084B9A684FF498
:104C3000E05393FAA3F3B3FA83F302F4E052DBB246
:104C400022FA03F3024AD35CD84008BD0038024080
:104C50000889020808B5FFF7C9FF084B9A684FF4A6
:104C6000604393FAA3F3B3FA83F302F46042DBB236
:104C700022FA03F3024AD35CD84008BD0038024050
:104C8000088902080F2303600B4B9A6802F00302A5
:104C900042609A6802F0F00282609A6802F4E05280
:104CA000C2609B68DB0803F4E0530361034B1B689D
:104CB00003F00F030B60704700380240003C0240D5
:104CC0002DE9F04F85B00B68DFF89081614A0193C0
:104CD0004FF001090023019C09FA03F707EA0406D3
:104CE000B74240F0A8804C6824F0100ABAF1020FD5
:104CF00016D14FEAD30C00EB8C0C03F0070BDCF859
:104D000020504FEA8B0B4FF00F0E0EFA0BFE25EAE8
:104D10000E0E0D6905FA0BF545EA0E05CCF820508C
:104D20004FEA430C0325D0F800B005FA0CF5ED432B
:104D300004F0030E0BEA050B0EFA0CFE0AF1FF3A23
:104D40004EEA0B0EBAF1010F0095C0F800E015D83D
:104D5000D0F808E005EA0E0ECD6805FA0CFA4AEA2A
:104D60000E0EC0F808E0D0F804E02EEA0707C4F3FE
:104D7000001E0EFA03FE4EEA07074760C768009D53
:104D80003D408F6807FA0CF73D43C560E50052D5FA
:104D9000D8F8445045F48045C8F84450D8F84450F9
:104DA00023F0030707F1804705F4804507F59C379A
:104DB000039503F0030C039DBD684FEA8C0C4FF084
:104DC0000F0E0EFA0CFE25EA0E0E234DA84239D026
:104DD00005F58065A84237D005F58065A84235D035
:104DE00005F58065A84233D005F58065A84214BF5B
:104DF0000525042505FA0CF545EA0E05BD60156884
:104E0000F74314F4803F0CBF3D40354315605568AF
:104E100014F4003F0CBF3D4035435560956814F4D1
:104E2000801F0CBF3D4035439560D568A40254BF38
:104E30003D403543D5600133102B7FF44CAF05B0B6
:104E4000BDE8F08F0025D5E70125D3E70225D1E79E
:104E50000325CFE7003C014000000240003802403B
:104E600008B50B4B1A6842F400721A601A6842F4D3
:104E700080621A601A6842F480721A60032000F09F
:104E8000C1F90F2000F012FA00F012F8002008BD5E
:104E9000003C0240024A136801331360704700BFB0
:104EA0005C060020014B1868704700BF5C060020BC
:104EB00070470000036A23F001030362036A70B5C0
:104EC000446882690D6822F073022A438D6823F0DA
:104ED00002032B430A4DA8420BD1CD688E6923F003
:104EE00008032B434D6924F44074354323F0040335
:104EF0002C43446082614A684263036270BD00BF14
:104F000000000140036A23F480730362036A70B5F2
:104F10004468C2690D6822F073022A438D6823F445
:104F2000007343EA05230B4DA8420DD1CD688E696D
:104F300023F4006343EA05234D6924F440543543C8
:104F400023F4806344EA05144460C2614A68C26382
:104F5000036270BD00000140036A23F480530362C2
:104F6000036A30B54468C2690D6822F4E64242EA39
:104F700005228D6823F4005343EA0533064DA84209
:104F800002BF4D6924F4804444EA85144460C26140
:104F90004A680264036230BD0000014070477047F8
:104FA000224A036890420ED0B0F1804F0BD0A2F598
:104FB0007C42904207D002F58062904203D002F515
:104FC0008062904219D14A6823F070031343174A54
:104FD000904204D1CA6823F44073134318E0B0F13F
:104FE000804FF7D0124A9042F4D002F5806290428E
:104FF000F0D002F580629042ECD00E4A9042E9D0A7
:1050000002F580629042E5D002F580629042E1D0E4
:1050100003608B68C3620B688362044B984204BFD1
:105020000B69036301234361704700BF0000014027
:10503000000400400040014010B50446A0B190F8C3
:10504000393003F0FF021BB980F83820FFF7A6FFC4
:10505000022384F839302068211DFFF7A1FF0123C6
:1050600084F83930002010BD012010BD10B5044671
:10507000A0B190F8393003F0FF021BB980F8382056
:10508000FFF78DFF022384F839302068211DFFF7D8
:1050900087FF012384F83930002010BD012010BDA6
:1050A000036A23F010030362036A70B544688269DF
:1050B0000D6822F4E64242EA05228D6823F02003BF
:1050C00043EA05130B4DA8420DD1CD688E6923F03C
:1050D000800343EA05134D6924F44064354323F00B
:1050E000400344EA8504446082614A688263036243
:1050F00070BD00BF0000014038B590F83830012B7A
:1051000004464FF0020025D0012384F8383084F89B
:1051100039000C2A18D8DFE802F0071717171E17F6
:1051200017172F17171740002068FFF7C3FE2368D3
:1051300009699A6942F008029A619A6922F00402A8
:105140009A619A690A439A610123002084F83930F0
:1051500084F8380038BD2068FFF7A2FF236809698A
:105160009A6942F400629A619A6922F480629A61B3
:105170009A6942EA0122E6E72068FFF7C3FE236846
:105180000969DA6942F00802DA61DA6922F0040298
:10519000DA61DA690A43DA61D6E72068FFF7DCFEF4
:1051A00023680969DA6942F40062DA61DA6922F493
:1051B0008062DA61DA6942EA0122ECE7036A10B53B
:1051C00001248C4023EA04030362036A8A401A43E1
:1051D000026210BD10B5044601220068FFF7EEFF21
:1051E0002368064A934202BF5A6C42F400425A6452
:1051F0001A6842F001021A60002010BD0000014050
:10520000FFF7E8BF074AD36823F4E0631B041B0CD5
:1052100043F0BF63000243F4003300F4E060034353
:10522000D360704700ED00E030B50C4CA268A46874
:10523000B4F1006F13460CD1131F094C094A53F8FF
:10524000045F42F8045FA242F9D1044A4FF00053D0
:105250009360103043F8201030BD00BF00ED00E037
:1052600094010020FCFFFF1F70B50E4C2368DB6823
:10527000990701D500F07EF92368DA68520710D546
:105280006FF00402084E1A615D6A3368EB1AB3F5D9
:105290007A7F06D3FFF7FEFD2368356005F57A7245
:1052A0009A6370BD6406002060060020234B37B56A
:1052B0001A6C234C42F008021A641A6C02F00802BD
:1052C0000192019A1A6A42F008021A621A6A22F0DE
:1052D00008021A6200F058F81A4B23604FF0FF33AF
:1052E000E360194B194A1B68B3FBF2F30025013B3D
:1052F000204663602561A5606561FFF79DFE144946
:105300003220FFF791FF134B4FF480225A60294659
:105310002046FFF775FF04212046FFF771FF236841
:105320000D495A6A0A6002F57A729A63DA68284669
:1053300042F00402DA6003B030BD00BF0038024022
:1053400064060020000C0040A001002040420F0035
:105350006952000800E100E0600600207FB50F23DD
:105360000193022302934FF480520023032101A8EA
:10537000039304920593FFF7FFFAB0FA80F0400917
:1053800007B05DF804FB0000174A1849936803F062
:105390000C03042B10B50DD0082B0DD0144B0B6053
:1053A000114B144A9B68C3F30313D25C0B68D340C0
:1053B0000B6010BD104BF2E75468506852686302EE
:1053C000C2F3881200F03F004CBF0B4B084BB3FBFD
:1053D000F0F35343044A5268C2F3014201325200CF
:1053E000B3FBF2F3DBE700BF00380240A00100206E
:1053F0000024F4001889020800127A001A4B00B544
:105400001A6C42F080521A641B6C184A8FB003F079
:1054100080530093009B136823F4404343F40043FC
:105420001360136803F440430193019B012302932B
:10543000B0B90393022308934FF480030993042324
:105440000A930C930823C0220DEB03000B920D93DB
:10545000FFF7F4F830B9FFF781FF0FB05DF804FBF8
:105460000523E6E70020F8E700380240007000401E
:105470001A4B10B51A6C42F080521A641B6C184A11
:105480008EB003F080530093009B136823F44043D5
:1054900043F400431360136803F440430193019BFA
:1054A0000323029301230593102306930223C022B2
:1054B0000893082300240B920DEB030004220394AD
:1054C00009940A930C920D93FFF7B8F818B9FFF7F7
:1054D00045FF0EB010BD2046FBE700BF003802407C
:1054E0000070004008B50120FFF788FF30B9FFF7D2
:1054F00085FF18B9FFF7BCFF00B9FEE708BD000043
:10550000174AD2F8883010B543F47003154CC2F82E
:1055100088302368002143F001032360A1602368E1
:1055200023F0847323F4803323600F4B636023687C
:1055300023F4802323604FF00063E16093600B4B02
:105540000B4A1A60FFF78CFCFFF7CCFF236A43F08D
:1055500008032362236A23F00803236210BD00BFFF
:1055600000ED00E00038024010300024A0010020CF
:105570000024F400014800F0B7B800BF28890208F1
:105580000FB407B5054B04AA1B6852F8041BD86872
:10559000019219F0FDFF012019F03AF8880200206D
:1055A00010B5044601300DD110BD9C4209D12046F2
:1055B0008968FEF7A9FE20460021BDE81040FEF7ED
:1055C000C7BE0C3191F900305A1CEED10248BDE83B
:1055D0001040FFF7D5BF00BF93890208884208B585
:1055E00008D0431C06D0013106D00448FFF7C8FF9D
:1055F0004FF0FF31084608BD0146FBE7628902080B
:1056000091F900305A1C01D118467047834201D1EC
:10561000486870470C31F3E7421C10B5044607D0C8
:10562000FFF7EEFF431C044602D10248FFF7A8FF34
:10563000204610BD7389020891F900305A1C01D12F
:1056400018467047834201D1886870470C31F3E7F0
:10565000421C10B5044607D0FFF7EEFF431C04467A
:1056600002D10248FFF78CFF204610BD4489020892
:1056700070B50E4604461546FEF7C8FE013609D041
:1056800020460021FEF7DBFE29462046BDE870409B
:10569000FEF7D1BE70BD38B50D460446C1684368FB
:1056A00052B10B6020460121FEF7C9FE2946204673
:1056B000BDE83840FEF7BFBE1B04F2E70022FFF74B
:1056C000D7BF70B50E4604461546FEF79FFE01365D
:1056D00006D02A4620460021BDE87040FFF7DBBF18
:1056E00070BD0022FFF7EDBF036870B5DB680446AC
:1056F000984763685A6823681AB99B68BDE8704088
:1057000018475B68156898476368281A00285A6824
:1057100007DC916859601B68002BEAD050689847F5
:10572000E7E7236810681B69BDE87040184738B583
:105730000446FEF737FE0546FEF734FE401BA04246
:10574000FAD338BD4FF47A735843FFF7F0BF08B56A
:1057500072B69620FFF7F6FF9620FFF7F3FFF8E703
:10576000044B1B6823B9032202210348FEF7B2BC95
:10577000704700BF18060020FC05002002284FF0EB
:10578000000309DDC21E074951F8220041F822300A
:1057900020B103685B681847184670474FF0FF3028
:1057A000704700BFA806002002282DE9F0410C46F2
:1057B000154611DC0F4B1B680BB9FFF7D1FF0E4EDE
:1057C0006719BC4205D014F8011B3046FEF728FDCE
:1057D000F7E72846BDE8F0810338084B53F820006E
:1057E00020B10368BDE8F0411B6818474FF0FF3057
:1057F000BDE8F08118060020FC050020A806002066
:10580000022810B50C460ADC0B4B1B680BB9FFF7DE
:10581000A7FF0A48FEF7EEFC2070012010BD0338F8
:10582000074B53F8200020B10368BDE810409B6887
:1058300018474FF0FF3010BD18060020FC0500206F
:10584000A8060020022807DD0338064B53F8200085
:1058500020B10368DB681847012070474FF0FF3024
:10586000704700BFA8060020022807DD0338064B5A
:1058700053F8200020B103681B69184700207047C7
:105880004FF0FF30704700BFA8060020022808B57F
:1058900004D84FF400534B60002008BD18F0B2FE4E
:1058A000092303604FF0FF3008BD08B5012018F050
:1058B000AFFE704708B5FEF7C9FDFFF7FAFFBDE878
:1058C0000840FDF7F9BF0000074A13681844EFF3DA
:1058D0000881884229BF054B10600C224FF0FF3031
:1058E0002CBF1A6018467047A4010020E81D002054
:1058F000074C08B523680546986818F04FFF2368E1
:10590000D86818F04BFF0DB1FFF721FFFEE700BF8D
:105910008802002000F067B82DE9F0411D460368B9
:10592000164653F8082C88B004460F46811853F8E1
:10593000040C002305938DF818308DF819308DF87C
:105940001A3010230793A35853F8043C984201D00F
:10595000002040E0036802948DE8820005AA0392CB
:10596000D3F81C80062233462946C047059A002AF0
:10597000EED09DF81A0000F00603062B2AD09DF801
:1059800019109DF818300B4003F00603062B21D0A8
:1059900001F005010429DBD0A0B9002D05DB501969
:1059A000844214BF012006200AE0AB1C07D03368F4
:1059B00000941C6A29463B463046A04700E001207F
:1059C0008DF81A009DF81A3003F00603062BBFD19C
:1059D000059800E0104608B0BDE8F0810B4601468E
:1059E000184618F001BE19F0F9BA000010B5034BC3
:1059F0000360044600F006FB204610BDAC89020897
:105A000010B50446FFF7F2FF2046FFF7ECFF2046F3
:105A100010BD2DE9F14F0E461946834617469946AB
:105A20000A9CDDF82CA0DDF830800D9D00F0B4FA62
:105A300078B1002E2C602F7106DB3444A0450CBFDA
:105A400006240124AC711EE002361CD10123AB7187
:105A500019E0444504D15146584600F09DFA88B9F2
:105A6000DBF8080003680D95CDF83080CDF82CA048
:105A70000A94DC693A464B463146A44601B0BDE87B
:105A8000F04F60476F71002001B0BDE8F08F2DE945
:105A9000F041069E964280460F4614461D4603D1AD
:105AA000194600F079FA58B9D8F808000368069644
:105AB0001E6A22462B463946B446BDE8F04160478F
:105AC0000620BDE8F0812DE9F04104460D4616465A
:105AD0001F4600F0AAFA48B9A06803689C693246DC
